{
  "_format": "hh-sol-artifact-1",
  "contractName": "EnrollmentNFT",
  "sourceName": "contracts/EnrollmentNFT.sol",
  "abi": [
    {
      "inputs": [],
      "stateMutability": "nonpayable",
      "type": "constructor"
    },
    {
      "inputs": [],
      "name": "ERC721EnumerableForbiddenBatchMint",
      "type": "error"
    },
    {
      "inputs": [
        {
          "internalType": "address",
          "name": "sender",
          "type": "address"
        },
        {
          "internalType": "uint256",
          "name": "tokenId",
          "type": "uint256"
        },
        {
          "internalType": "address",
          "name": "owner",
          "type": "address"
        }
      ],
      "name": "ERC721IncorrectOwner",
      "type": "error"
    },
    {
      "inputs": [
        {
          "internalType": "address",
          "name": "operator",
          "type": "address"
        },
        {
          "internalType": "uint256",
          "name": "tokenId",
          "type": "uint256"
        }
      ],
      "name": "ERC721InsufficientApproval",
      "type": "error"
    },
    {
      "inputs": [
        {
          "internalType": "address",
          "name": "approver",
          "type": "address"
        }
      ],
      "name": "ERC721InvalidApprover",
      "type": "error"
    },
    {
      "inputs": [
        {
          "internalType": "address",
          "name": "operator",
          "type": "address"
        }
      ],
      "name": "ERC721InvalidOperator",
      "type": "error"
    },
    {
      "inputs": [
        {
          "internalType": "address",
          "name": "owner",
          "type": "address"
        }
      ],
      "name": "ERC721InvalidOwner",
      "type": "error"
    },
    {
      "inputs": [
        {
          "internalType": "address",
          "name": "receiver",
          "type": "address"
        }
      ],
      "name": "ERC721InvalidReceiver",
      "type": "error"
    },
    {
      "inputs": [
        {
          "internalType": "address",
          "name": "sender",
          "type": "address"
        }
      ],
      "name": "ERC721InvalidSender",
      "type": "error"
    },
    {
      "inputs": [
        {
          "internalType": "uint256",
          "name": "tokenId",
          "type": "uint256"
        }
      ],
      "name": "ERC721NonexistentToken",
      "type": "error"
    },
    {
      "inputs": [
        {
          "internalType": "address",
          "name": "owner",
          "type": "address"
        },
        {
          "internalType": "uint256",
          "name": "index",
          "type": "uint256"
        }
      ],
      "name": "ERC721OutOfBoundsIndex",
      "type": "error"
    },
    {
      "inputs": [
        {
          "internalType": "address",
          "name": "owner",
          "type": "address"
        }
      ],
      "name": "OwnableInvalidOwner",
      "type": "error"
    },
    {
      "inputs": [
        {
          "internalType": "address",
          "name": "account",
          "type": "address"
        }
      ],
      "name": "OwnableUnauthorizedAccount",
      "type": "error"
    },
    {
      "anonymous": false,
      "inputs": [
        {
          "indexed": true,
          "internalType": "address",
          "name": "owner",
          "type": "address"
        },
        {
          "indexed": true,
          "internalType": "address",
          "name": "approved",
          "type": "address"
        },
        {
          "indexed": true,
          "internalType": "uint256",
          "name": "tokenId",
          "type": "uint256"
        }
      ],
      "name": "Approval",
      "type": "event"
    },
    {
      "anonymous": false,
      "inputs": [
        {
          "indexed": true,
          "internalType": "address",
          "name": "owner",
          "type": "address"
        },
        {
          "indexed": true,
          "internalType": "address",
          "name": "operator",
          "type": "address"
        },
        {
          "indexed": false,
          "internalType": "bool",
          "name": "approved",
          "type": "bool"
        }
      ],
      "name": "ApprovalForAll",
      "type": "event"
    },
    {
      "anonymous": false,
      "inputs": [
        {
          "indexed": true,
          "internalType": "address",
          "name": "student",
          "type": "address"
        },
        {
          "indexed": true,
          "internalType": "uint256",
          "name": "tokenId",
          "type": "uint256"
        },
        {
          "indexed": false,
          "internalType": "string",
          "name": "university",
          "type": "string"
        },
        {
          "indexed": false,
          "internalType": "string",
          "name": "studentId",
          "type": "string"
        }
      ],
      "name": "EnrollmentNFTMinted",
      "type": "event"
    },
    {
      "anonymous": false,
      "inputs": [
        {
          "indexed": true,
          "internalType": "uint256",
          "name": "tokenId",
          "type": "uint256"
        },
        {
          "indexed": false,
          "internalType": "bool",
          "name": "isActive",
          "type": "bool"
        }
      ],
      "name": "EnrollmentStatusUpdated",
      "type": "event"
    },
    {
      "anonymous": false,
      "inputs": [
        {
          "indexed": true,
          "internalType": "address",
          "name": "previousOwner",
          "type": "address"
        },
        {
          "indexed": true,
          "internalType": "address",
          "name": "newOwner",
          "type": "address"
        }
      ],
      "name": "OwnershipTransferred",
      "type": "event"
    },
    {
      "anonymous": false,
      "inputs": [
        {
          "indexed": true,
          "internalType": "address",
          "name": "from",
          "type": "address"
        },
        {
          "indexed": true,
          "internalType": "address",
          "name": "to",
          "type": "address"
        },
        {
          "indexed": true,
          "internalType": "uint256",
          "name": "tokenId",
          "type": "uint256"
        }
      ],
      "name": "Transfer",
      "type": "event"
    },
    {
      "inputs": [
        {
          "internalType": "address",
          "name": "to",
          "type": "address"
        },
        {
          "internalType": "uint256",
          "name": "tokenId",
          "type": "uint256"
        }
      ],
      "name": "approve",
      "outputs": [],
      "stateMutability": "nonpayable",
      "type": "function"
    },
    {
      "inputs": [
        {
          "internalType": "address",
          "name": "owner",
          "type": "address"
        }
      ],
      "name": "balanceOf",
      "outputs": [
        {
          "internalType": "uint256",
          "name": "",
          "type": "uint256"
        }
      ],
      "stateMutability": "view",
      "type": "function"
    },
    {
      "inputs": [
        {
          "internalType": "uint256",
          "name": "",
          "type": "uint256"
        }
      ],
      "name": "enrollmentData",
      "outputs": [
        {
          "internalType": "string",
          "name": "university",
          "type": "string"
        },
        {
          "internalType": "string",
          "name": "studentId",
          "type": "string"
        },
        {
          "internalType": "uint256",
          "name": "enrollmentDate",
          "type": "uint256"
        },
        {
          "internalType": "bool",
          "name": "isActive",
          "type": "bool"
        }
      ],
      "stateMutability": "view",
      "type": "function"
    },
    {
      "inputs": [
        {
          "internalType": "uint256",
          "name": "tokenId",
          "type": "uint256"
        }
      ],
      "name": "getApproved",
      "outputs": [
        {
          "internalType": "address",
          "name": "",
          "type": "address"
        }
      ],
      "stateMutability": "view",
      "type": "function"
    },
    {
      "inputs": [
        {
          "internalType": "uint256",
          "name": "tokenId",
          "type": "uint256"
        }
      ],
      "name": "getEnrollmentData",
      "outputs": [
        {
          "internalType": "string",
          "name": "university",
          "type": "string"
        },
        {
          "internalType": "string",
          "name": "studentId",
          "type": "string"
        },
        {
          "internalType": "uint256",
          "name": "enrollmentDate",
          "type": "uint256"
        },
        {
          "internalType": "bool",
          "name": "isActive",
          "type": "bool"
        }
      ],
      "stateMutability": "view",
      "type": "function"
    },
    {
      "inputs": [],
      "name": "getNextTokenId",
      "outputs": [
        {
          "internalType": "uint256",
          "name": "",
          "type": "uint256"
        }
      ],
      "stateMutability": "view",
      "type": "function"
    },
    {
      "inputs": [
        {
          "internalType": "address",
          "name": "owner",
          "type": "address"
        }
      ],
      "name": "getTokensByOwner",
      "outputs": [
        {
          "internalType": "uint256[]",
          "name": "",
          "type": "uint256[]"
        }
      ],
      "stateMutability": "view",
      "type": "function"
    },
    {
      "inputs": [
        {
          "internalType": "address",
          "name": "student",
          "type": "address"
        }
      ],
      "name": "hasActiveEnrollment",
      "outputs": [
        {
          "internalType": "bool",
          "name": "",
          "type": "bool"
        }
      ],
      "stateMutability": "view",
      "type": "function"
    },
    {
      "inputs": [
        {
          "internalType": "address",
          "name": "owner",
          "type": "address"
        },
        {
          "internalType": "address",
          "name": "operator",
          "type": "address"
        }
      ],
      "name": "isApprovedForAll",
      "outputs": [
        {
          "internalType": "bool",
          "name": "",
          "type": "bool"
        }
      ],
      "stateMutability": "view",
      "type": "function"
    },
    {
      "inputs": [
        {
          "internalType": "address",
          "name": "to",
          "type": "address"
        },
        {
          "internalType": "string",
          "name": "university",
          "type": "string"
        },
        {
          "internalType": "string",
          "name": "studentId",
          "type": "string"
        }
      ],
      "name": "mintEnrollmentNFT",
      "outputs": [
        {
          "internalType": "uint256",
          "name": "",
          "type": "uint256"
        }
      ],
      "stateMutability": "nonpayable",
      "type": "function"
    },
    {
      "inputs": [],
      "name": "name",
      "outputs": [
        {
          "internalType": "string",
          "name": "",
          "type": "string"
        }
      ],
      "stateMutability": "view",
      "type": "function"
    },
    {
      "inputs": [],
      "name": "owner",
      "outputs": [
        {
          "internalType": "address",
          "name": "",
          "type": "address"
        }
      ],
      "stateMutability": "view",
      "type": "function"
    },
    {
      "inputs": [
        {
          "internalType": "uint256",
          "name": "tokenId",
          "type": "uint256"
        }
      ],
      "name": "ownerOf",
      "outputs": [
        {
          "internalType": "address",
          "name": "",
          "type": "address"
        }
      ],
      "stateMutability": "view",
      "type": "function"
    },
    {
      "inputs": [],
      "name": "renounceOwnership",
      "outputs": [],
      "stateMutability": "nonpayable",
      "type": "function"
    },
    {
      "inputs": [
        {
          "internalType": "address",
          "name": "from",
          "type": "address"
        },
        {
          "internalType": "address",
          "name": "to",
          "type": "address"
        },
        {
          "internalType": "uint256",
          "name": "tokenId",
          "type": "uint256"
        }
      ],
      "name": "safeTransferFrom",
      "outputs": [],
      "stateMutability": "nonpayable",
      "type": "function"
    },
    {
      "inputs": [
        {
          "internalType": "address",
          "name": "from",
          "type": "address"
        },
        {
          "internalType": "address",
          "name": "to",
          "type": "address"
        },
        {
          "internalType": "uint256",
          "name": "tokenId",
          "type": "uint256"
        },
        {
          "internalType": "bytes",
          "name": "data",
          "type": "bytes"
        }
      ],
      "name": "safeTransferFrom",
      "outputs": [],
      "stateMutability": "nonpayable",
      "type": "function"
    },
    {
      "inputs": [
        {
          "internalType": "address",
          "name": "operator",
          "type": "address"
        },
        {
          "internalType": "bool",
          "name": "approved",
          "type": "bool"
        }
      ],
      "name": "setApprovalForAll",
      "outputs": [],
      "stateMutability": "nonpayable",
      "type": "function"
    },
    {
      "inputs": [
        {
          "internalType": "bytes4",
          "name": "interfaceId",
          "type": "bytes4"
        }
      ],
      "name": "supportsInterface",
      "outputs": [
        {
          "internalType": "bool",
          "name": "",
          "type": "bool"
        }
      ],
      "stateMutability": "view",
      "type": "function"
    },
    {
      "inputs": [],
      "name": "symbol",
      "outputs": [
        {
          "internalType": "string",
          "name": "",
          "type": "string"
        }
      ],
      "stateMutability": "view",
      "type": "function"
    },
    {
      "inputs": [
        {
          "internalType": "uint256",
          "name": "index",
          "type": "uint256"
        }
      ],
      "name": "tokenByIndex",
      "outputs": [
        {
          "internalType": "uint256",
          "name": "",
          "type": "uint256"
        }
      ],
      "stateMutability": "view",
      "type": "function"
    },
    {
      "inputs": [
        {
          "internalType": "address",
          "name": "owner",
          "type": "address"
        },
        {
          "internalType": "uint256",
          "name": "index",
          "type": "uint256"
        }
      ],
      "name": "tokenOfOwnerByIndex",
      "outputs": [
        {
          "internalType": "uint256",
          "name": "",
          "type": "uint256"
        }
      ],
      "stateMutability": "view",
      "type": "function"
    },
    {
      "inputs": [
        {
          "internalType": "uint256",
          "name": "tokenId",
          "type": "uint256"
        }
      ],
      "name": "tokenURI",
      "outputs": [
        {
          "internalType": "string",
          "name": "",
          "type": "string"
        }
      ],
      "stateMutability": "view",
      "type": "function"
    },
    {
      "inputs": [],
      "name": "totalSupply",
      "outputs": [
        {
          "internalType": "uint256",
          "name": "",
          "type": "uint256"
        }
      ],
      "stateMutability": "view",
      "type": "function"
    },
    {
      "inputs": [
        {
          "internalType": "address",
          "name": "from",
          "type": "address"
        },
        {
          "internalType": "address",
          "name": "to",
          "type": "address"
        },
        {
          "internalType": "uint256",
          "name": "tokenId",
          "type": "uint256"
        }
      ],
      "name": "transferFrom",
      "outputs": [],
      "stateMutability": "nonpayable",
      "type": "function"
    },
    {
      "inputs": [
        {
          "internalType": "address",
          "name": "newOwner",
          "type": "address"
        }
      ],
      "name": "transferOwnership",
      "outputs": [],
      "stateMutability": "nonpayable",
      "type": "function"
    },
    {
      "inputs": [
        {
          "internalType": "uint256",
          "name": "tokenId",
          "type": "uint256"
        },
        {
          "internalType": "bool",
          "name": "isActive",
          "type": "bool"
        }
      ],
      "name": "updateEnrollmentStatus",
      "outputs": [],
      "stateMutability": "nonpayable",
      "type": "function"
    }
  ],
  "bytecode": "0x608060405234801561001057600080fd5b50336040518060400160405280600f81526020017f456e726f6c6c6d656e7450726f6f6600000000000000000000000000000000008152506040518060400160405280600481526020017f454e465400000000000000000000000000000000000000000000000000000000815250816000908161008d9190610445565b50806001908161009d9190610445565b505050600073ffffffffffffffffffffffffffffffffffffffff168173ffffffffffffffffffffffffffffffffffffffff16036101125760006040517f1e4fbdf70000000000000000000000000000000000000000000000000000000081526004016101099190610558565b60405180910390fd5b6101218161012f60201b60201c565b506001600b81905550610573565b6000600a60009054906101000a900473ffffffffffffffffffffffffffffffffffffffff16905081600a60006101000a81548173ffffffffffffffffffffffffffffffffffffffff021916908373ffffffffffffffffffffffffffffffffffffffff1602179055508173ffffffffffffffffffffffffffffffffffffffff168173ffffffffffffffffffffffffffffffffffffffff167f8be0079c531659141344cd1fd0a4f28419497f9722a3daafe3b4186f6b6457e060405160405180910390a35050565b600081519050919050565b7f4e487b7100000000000000000000000000000000000000000000000000000000600052604160045260246000fd5b7f4e487b7100000000000000000000000000000000000000000000000000000000600052602260045260246000fd5b6000600282049050600182168061027657607f821691505b6020821081036102895761028861022f565b5b50919050565b60008190508160005260206000209050919050565b60006020601f8301049050919050565b600082821b905092915050565b6000600883026102f17fffffffffffffffffffffffffffffffffffffffffffffffffffffffffffffffff826102b4565b6102fb86836102b4565b95508019841693508086168417925050509392505050565b6000819050919050565b6000819050919050565b600061034261033d61033884610313565b61031d565b610313565b9050919050565b6000819050919050565b61035c83610327565b61037061036882610349565b8484546102c1565b825550505050565b600090565b610385610378565b610390818484610353565b505050565b5b818110156103b4576103a960008261037d565b600181019050610396565b5050565b601f8211156103f9576103ca8161028f565b6103d3846102a4565b810160208510156103e2578190505b6103f66103ee856102a4565b830182610395565b50505b505050565b600082821c905092915050565b600061041c600019846008026103fe565b1980831691505092915050565b6000610435838361040b565b9150826002028217905092915050565b61044e826101f5565b67ffffffffffffffff81111561046757610466610200565b5b610471825461025e565b61047c8282856103b8565b600060209050601f8311600181146104af576000841561049d578287015190505b6104a78582610429565b86555061050f565b601f1984166104bd8661028f565b60005b828110156104e5578489015182556001820191506020850194506020810190506104c0565b8683101561050257848901516104fe601f89168261040b565b8355505b6001600288020188555050505b505050505050565b600073ffffffffffffffffffffffffffffffffffffffff82169050919050565b600061054282610517565b9050919050565b61055281610537565b82525050565b600060208201905061056d6000830184610549565b92915050565b61364f806105826000396000f3fe608060405234801561001057600080fd5b506004361061018e5760003560e01c80635489d1e6116100de578063a22cb46511610097578063caa0f92a11610071578063caa0f92a146104d3578063e985e9c5146104f1578063f2fde38b14610521578063f6bdfaf51461053d5761018e565b8063a22cb4651461046b578063b88d4fde14610487578063c87b56dd146104a35761018e565b80635489d1e6146103925780636352211e146103c557806370a08231146103f5578063715018a6146104255780638da5cb5b1461042f57806395d89b411461044d5761018e565b806318160ddd1161014b5780632f745c59116101255780632f745c59146102e657806340398d671461031657806342842e0e146103465780634f6ccce7146103625761018e565b806318160ddd1461029057806323b872dd146102ae5780632df8e5dc146102ca5761018e565b806301ffc9a71461019357806306fdde03146101c3578063081812fc146101e1578063095ea7b3146102115780630c2ce2461461022d57806313078b7614610260575b600080fd5b6101ad60048036038101906101a8919061273e565b61056d565b6040516101ba9190612786565b60405180910390f35b6101cb61057f565b6040516101d89190612831565b60405180910390f35b6101fb60048036038101906101f69190612889565b610611565b60405161020891906128f7565b60405180910390f35b61022b6004803603810190610226919061293e565b61062d565b005b61024760048036038101906102429190612889565b610643565b604051610257949392919061298d565b60405180910390f35b61027a600480360381019061027591906129e0565b61084f565b6040516102879190612786565b60405180910390f35b6102986108c5565b6040516102a59190612a0d565b60405180910390f35b6102c860048036038101906102c39190612a28565b6108d2565b005b6102e460048036038101906102df9190612aa7565b6109d4565b005b61030060048036038101906102fb919061293e565b610abd565b60405161030d9190612a0d565b60405180910390f35b610330600480360381019061032b91906129e0565b610b66565b60405161033d9190612ba5565b60405180910390f35b610360600480360381019061035b9190612a28565b610c0e565b005b61037c60048036038101906103779190612889565b610c2e565b6040516103899190612a0d565b60405180910390f35b6103ac60048036038101906103a79190612889565b610ca4565b6040516103bc949392919061298d565b60405180910390f35b6103df60048036038101906103da9190612889565b610df1565b6040516103ec91906128f7565b60405180910390f35b61040f600480360381019061040a91906129e0565b610e03565b60405161041c9190612a0d565b60405180910390f35b61042d610ebd565b005b610437610ed1565b60405161044491906128f7565b60405180910390f35b610455610efb565b6040516104629190612831565b60405180910390f35b61048560048036038101906104809190612bc7565b610f8d565b005b6104a1600480360381019061049c9190612d3c565b610fa3565b005b6104bd60048036038101906104b89190612889565b610fc8565b6040516104ca9190612831565b60405180910390f35b6104db611031565b6040516104e89190612a0d565b60405180910390f35b61050b60048036038101906105069190612dbf565b61103b565b6040516105189190612786565b60405180910390f35b61053b600480360381019061053691906129e0565b6110cf565b005b61055760048036038101906105529190612ea0565b611155565b6040516105649190612a0d565b60405180910390f35b600061057882611274565b9050919050565b60606000805461058e90612f5a565b80601f01602080910402602001604051908101604052809291908181526020018280546105ba90612f5a565b80156106075780601f106105dc57610100808354040283529160200191610607565b820191906000526020600020905b8154815290600101906020018083116105ea57829003601f168201915b5050505050905090565b600061061c826112ee565b5061062682611376565b9050919050565b61063f828261063a6113b3565b6113bb565b5050565b606080600080600073ffffffffffffffffffffffffffffffffffffffff1661066a866113cd565b73ffffffffffffffffffffffffffffffffffffffff16036106c0576040517f08c379a00000000000000000000000000000000000000000000000000000000081526004016106b790612fd7565b60405180910390fd5b6000600c60008781526020019081526020016000206040518060800160405290816000820180546106f090612f5a565b80601f016020809104026020016040519081016040528092919081815260200182805461071c90612f5a565b80156107695780601f1061073e57610100808354040283529160200191610769565b820191906000526020600020905b81548152906001019060200180831161074c57829003601f168201915b5050505050815260200160018201805461078290612f5a565b80601f01602080910402602001604051908101604052809291908181526020018280546107ae90612f5a565b80156107fb5780601f106107d0576101008083540402835291602001916107fb565b820191906000526020600020905b8154815290600101906020018083116107de57829003601f168201915b50505050508152602001600282015481526020016003820160009054906101000a900460ff161515151581525050905080600001518160200151826040015183606001519450945094509450509193509193565b60008061085b83610e03565b905060005b818110156108b95760006108748583610abd565b9050600c600082815260200190815260200160002060030160009054906101000a900460ff16156108ab57600193505050506108c0565b508080600101915050610860565b5060009150505b919050565b6000600880549050905090565b600073ffffffffffffffffffffffffffffffffffffffff168273ffffffffffffffffffffffffffffffffffffffff16036109445760006040517f64a0ae9200000000000000000000000000000000000000000000000000000000815260040161093b91906128f7565b60405180910390fd5b600061095883836109536113b3565b61140a565b90508373ffffffffffffffffffffffffffffffffffffffff168173ffffffffffffffffffffffffffffffffffffffff16146109ce578382826040517f64283d7b0000000000000000000000000000000000000000000000000000000081526004016109c593929190612ff7565b60405180910390fd5b50505050565b6109dc6114d7565b600073ffffffffffffffffffffffffffffffffffffffff166109fd836113cd565b73ffffffffffffffffffffffffffffffffffffffff1603610a53576040517f08c379a0000000000000000000000000000000000000000000000000000000008152600401610a4a90612fd7565b60405180910390fd5b80600c600084815260200190815260200160002060030160006101000a81548160ff021916908315150217905550817f89107ac91251d34e07a1a5f2d10b020f13db09788e4022d175c5fb5d6fddff3e82604051610ab19190612786565b60405180910390a25050565b6000610ac883610e03565b8210610b0d5782826040517fa57d13dc000000000000000000000000000000000000000000000000000000008152600401610b0492919061302e565b60405180910390fd5b600660008473ffffffffffffffffffffffffffffffffffffffff1673ffffffffffffffffffffffffffffffffffffffff168152602001908152602001600020600083815260200190815260200160002054905092915050565b60606000610b7383610e03565b905060008167ffffffffffffffff811115610b9157610b90612c11565b5b604051908082528060200260200182016040528015610bbf5781602001602082028036833780820191505090505b50905060005b82811015610c0357610bd78582610abd565b828281518110610bea57610be9613057565b5b6020026020010181815250508080600101915050610bc5565b508092505050919050565b610c2983838360405180602001604052806000815250610fa3565b505050565b6000610c386108c5565b8210610c7e576000826040517fa57d13dc000000000000000000000000000000000000000000000000000000008152600401610c7592919061302e565b60405180910390fd5b60088281548110610c9257610c91613057565b5b90600052602060002001549050919050565b600c602052806000526040600020600091509050806000018054610cc790612f5a565b80601f0160208091040260200160405190810160405280929190818152602001828054610cf390612f5a565b8015610d405780601f10610d1557610100808354040283529160200191610d40565b820191906000526020600020905b815481529060010190602001808311610d2357829003601f168201915b505050505090806001018054610d5590612f5a565b80601f0160208091040260200160405190810160405280929190818152602001828054610d8190612f5a565b8015610dce5780601f10610da357610100808354040283529160200191610dce565b820191906000526020600020905b815481529060010190602001808311610db157829003601f168201915b5050505050908060020154908060030160009054906101000a900460ff16905084565b6000610dfc826112ee565b9050919050565b60008073ffffffffffffffffffffffffffffffffffffffff168273ffffffffffffffffffffffffffffffffffffffff1603610e765760006040517f89c62b64000000000000000000000000000000000000000000000000000000008152600401610e6d91906128f7565b60405180910390fd5b600360008373ffffffffffffffffffffffffffffffffffffffff1673ffffffffffffffffffffffffffffffffffffffff168152602001908152602001600020549050919050565b610ec56114d7565b610ecf600061155e565b565b6000600a60009054906101000a900473ffffffffffffffffffffffffffffffffffffffff16905090565b606060018054610f0a90612f5a565b80601f0160208091040260200160405190810160405280929190818152602001828054610f3690612f5a565b8015610f835780601f10610f5857610100808354040283529160200191610f83565b820191906000526020600020905b815481529060010190602001808311610f6657829003601f168201915b5050505050905090565b610f9f610f986113b3565b8383611624565b5050565b610fae8484846108d2565b610fc2610fb96113b3565b85858585611793565b50505050565b6060610fd3826112ee565b506000610fde611944565b90506000815111610ffe5760405180602001604052806000815250611029565b806110088461195b565b6040516020016110199291906130c2565b6040516020818303038152906040525b915050919050565b6000600b54905090565b6000600560008473ffffffffffffffffffffffffffffffffffffffff1673ffffffffffffffffffffffffffffffffffffffff16815260200190815260200160002060008373ffffffffffffffffffffffffffffffffffffffff1673ffffffffffffffffffffffffffffffffffffffff16815260200190815260200160002060009054906101000a900460ff16905092915050565b6110d76114d7565b600073ffffffffffffffffffffffffffffffffffffffff168173ffffffffffffffffffffffffffffffffffffffff16036111495760006040517f1e4fbdf700000000000000000000000000000000000000000000000000000000815260040161114091906128f7565b60405180910390fd5b6111528161155e565b50565b600061115f6114d7565b6000600b549050600b600081548092919061117990613115565b91905055506111888582611a29565b604051806080016040528085815260200184815260200142815260200160011515815250600c600083815260200190815260200160002060008201518160000190816111d49190613309565b5060208201518160010190816111ea9190613309565b506040820151816002015560608201518160030160006101000a81548160ff021916908315150217905550905050808573ffffffffffffffffffffffffffffffffffffffff167f1d9ab5604dd87227a4de2ad8b055bd3cf0f9c364eb245e17999bf1824f8e848e86866040516112619291906133db565b60405180910390a3809150509392505050565b60007f780e9d63000000000000000000000000000000000000000000000000000000007bffffffffffffffffffffffffffffffffffffffffffffffffffffffff1916827bffffffffffffffffffffffffffffffffffffffffffffffffffffffff191614806112e757506112e682611b22565b5b9050919050565b6000806112fa836113cd565b9050600073ffffffffffffffffffffffffffffffffffffffff168173ffffffffffffffffffffffffffffffffffffffff160361136d57826040517f7e2732890000000000000000000000000000000000000000000000000000000081526004016113649190612a0d565b60405180910390fd5b80915050919050565b60006004600083815260200190815260200160002060009054906101000a900473ffffffffffffffffffffffffffffffffffffffff169050919050565b600033905090565b6113c88383836001611c04565b505050565b60006002600083815260200190815260200160002060009054906101000a900473ffffffffffffffffffffffffffffffffffffffff169050919050565b600080611416846113cd565b9050600073ffffffffffffffffffffffffffffffffffffffff168173ffffffffffffffffffffffffffffffffffffffff16141580156114825750600073ffffffffffffffffffffffffffffffffffffffff168573ffffffffffffffffffffffffffffffffffffffff1614155b156114c2576040517f08c379a00000000000000000000000000000000000000000000000000000000081526004016114b990613484565b60405180910390fd5b6114cd858585611dc9565b9150509392505050565b6114df6113b3565b73ffffffffffffffffffffffffffffffffffffffff166114fd610ed1565b73ffffffffffffffffffffffffffffffffffffffff161461155c576115206113b3565b6040517f118cdaa700000000000000000000000000000000000000000000000000000000815260040161155391906128f7565b60405180910390fd5b565b6000600a60009054906101000a900473ffffffffffffffffffffffffffffffffffffffff16905081600a60006101000a81548173ffffffffffffffffffffffffffffffffffffffff021916908373ffffffffffffffffffffffffffffffffffffffff1602179055508173ffffffffffffffffffffffffffffffffffffffff168173ffffffffffffffffffffffffffffffffffffffff167f8be0079c531659141344cd1fd0a4f28419497f9722a3daafe3b4186f6b6457e060405160405180910390a35050565b600073ffffffffffffffffffffffffffffffffffffffff168273ffffffffffffffffffffffffffffffffffffffff160361169557816040517f5b08ba1800000000000000000000000000000000000000000000000000000000815260040161168c91906128f7565b60405180910390fd5b80600560008573ffffffffffffffffffffffffffffffffffffffff1673ffffffffffffffffffffffffffffffffffffffff16815260200190815260200160002060008473ffffffffffffffffffffffffffffffffffffffff1673ffffffffffffffffffffffffffffffffffffffff16815260200190815260200160002060006101000a81548160ff0219169083151502179055508173ffffffffffffffffffffffffffffffffffffffff168373ffffffffffffffffffffffffffffffffffffffff167f17307eab39ab6107e8899845ad3d59bd9653f200f220920489ca2b5937696c31836040516117869190612786565b60405180910390a3505050565b60008373ffffffffffffffffffffffffffffffffffffffff163b111561193d578273ffffffffffffffffffffffffffffffffffffffff1663150b7a02868685856040518563ffffffff1660e01b81526004016117f294939291906134f9565b6020604051808303816000875af192505050801561182e57506040513d601f19601f8201168201806040525081019061182b919061355a565b60015b6118b2573d806000811461185e576040519150601f19603f3d011682016040523d82523d6000602084013e611863565b606091505b5060008151036118aa57836040517f64a0ae920000000000000000000000000000000000000000000000000000000081526004016118a191906128f7565b60405180910390fd5b805160208201fd5b63150b7a0260e01b7bffffffffffffffffffffffffffffffffffffffffffffffffffffffff1916817bffffffffffffffffffffffffffffffffffffffffffffffffffffffff19161461193b57836040517f64a0ae9200000000000000000000000000000000000000000000000000000000815260040161193291906128f7565b60405180910390fd5b505b5050505050565b606060405180602001604052806000815250905090565b60606000600161196a84611ee6565b01905060008167ffffffffffffffff81111561198957611988612c11565b5b6040519080825280601f01601f1916602001820160405280156119bb5781602001600182028036833780820191505090505b509050600082602083010190505b600115611a1e578080600190039150507f3031323334353637383961626364656600000000000000000000000000000000600a86061a8153600a8581611a1257611a11613587565b5b049450600085036119c9575b819350505050919050565b600073ffffffffffffffffffffffffffffffffffffffff168273ffffffffffffffffffffffffffffffffffffffff1603611a9b5760006040517f64a0ae92000000000000000000000000000000000000000000000000000000008152600401611a9291906128f7565b60405180910390fd5b6000611aa98383600061140a565b9050600073ffffffffffffffffffffffffffffffffffffffff168173ffffffffffffffffffffffffffffffffffffffff1614611b1d5760006040517f73c6ac6e000000000000000000000000000000000000000000000000000000008152600401611b1491906128f7565b60405180910390fd5b505050565b60007f80ac58cd000000000000000000000000000000000000000000000000000000007bffffffffffffffffffffffffffffffffffffffffffffffffffffffff1916827bffffffffffffffffffffffffffffffffffffffffffffffffffffffff19161480611bed57507f5b5e139f000000000000000000000000000000000000000000000000000000007bffffffffffffffffffffffffffffffffffffffffffffffffffffffff1916827bffffffffffffffffffffffffffffffffffffffffffffffffffffffff1916145b80611bfd5750611bfc82612039565b5b9050919050565b8080611c3d5750600073ffffffffffffffffffffffffffffffffffffffff168273ffffffffffffffffffffffffffffffffffffffff1614155b15611d71576000611c4d846112ee565b9050600073ffffffffffffffffffffffffffffffffffffffff168373ffffffffffffffffffffffffffffffffffffffff1614158015611cb857508273ffffffffffffffffffffffffffffffffffffffff168173ffffffffffffffffffffffffffffffffffffffff1614155b8015611ccb5750611cc9818461103b565b155b15611d0d57826040517fa9fbf51f000000000000000000000000000000000000000000000000000000008152600401611d0491906128f7565b60405180910390fd5b8115611d6f57838573ffffffffffffffffffffffffffffffffffffffff168273ffffffffffffffffffffffffffffffffffffffff167f8c5be1e5ebec7d5bd14f71427d1e84f3dd0314c0f7b2291e5b200ac8c7c3b92560405160405180910390a45b505b836004600085815260200190815260200160002060006101000a81548173ffffffffffffffffffffffffffffffffffffffff021916908373ffffffffffffffffffffffffffffffffffffffff16021790555050505050565b600080611dd78585856120a3565b9050600073ffffffffffffffffffffffffffffffffffffffff168173ffffffffffffffffffffffffffffffffffffffff1603611e1b57611e16846122bd565b611e5a565b8473ffffffffffffffffffffffffffffffffffffffff168173ffffffffffffffffffffffffffffffffffffffff1614611e5957611e588185612306565b5b5b600073ffffffffffffffffffffffffffffffffffffffff168573ffffffffffffffffffffffffffffffffffffffff1603611e9c57611e97846123f1565b611edb565b8473ffffffffffffffffffffffffffffffffffffffff168173ffffffffffffffffffffffffffffffffffffffff1614611eda57611ed985856124c2565b5b5b809150509392505050565b600080600090507a184f03e93ff9f4daa797ed6e38ed64bf6a1f0100000000000000008310611f44577a184f03e93ff9f4daa797ed6e38ed64bf6a1f0100000000000000008381611f3a57611f39613587565b5b0492506040810190505b6d04ee2d6d415b85acef81000000008310611f81576d04ee2d6d415b85acef81000000008381611f7757611f76613587565b5b0492506020810190505b662386f26fc100008310611fb057662386f26fc100008381611fa657611fa5613587565b5b0492506010810190505b6305f5e1008310611fd9576305f5e1008381611fcf57611fce613587565b5b0492506008810190505b6127108310611ffe576127108381611ff457611ff3613587565b5b0492506004810190505b60648310612021576064838161201757612016613587565b5b0492506002810190505b600a8310612030576001810190505b80915050919050565b60007f01ffc9a7000000000000000000000000000000000000000000000000000000007bffffffffffffffffffffffffffffffffffffffffffffffffffffffff1916827bffffffffffffffffffffffffffffffffffffffffffffffffffffffff1916149050919050565b6000806120af846113cd565b9050600073ffffffffffffffffffffffffffffffffffffffff168373ffffffffffffffffffffffffffffffffffffffff16146120f1576120f081848661254d565b5b600073ffffffffffffffffffffffffffffffffffffffff168173ffffffffffffffffffffffffffffffffffffffff161461218257612133600085600080611c04565b6001600360008373ffffffffffffffffffffffffffffffffffffffff1673ffffffffffffffffffffffffffffffffffffffff168152602001908152602001600020600082825403925050819055505b600073ffffffffffffffffffffffffffffffffffffffff168573ffffffffffffffffffffffffffffffffffffffff1614612205576001600360008773ffffffffffffffffffffffffffffffffffffffff1673ffffffffffffffffffffffffffffffffffffffff168152602001908152602001600020600082825401925050819055505b846002600086815260200190815260200160002060006101000a81548173ffffffffffffffffffffffffffffffffffffffff021916908373ffffffffffffffffffffffffffffffffffffffff160217905550838573ffffffffffffffffffffffffffffffffffffffff168273ffffffffffffffffffffffffffffffffffffffff167fddf252ad1be2c89b69c2b068fc378daa952ba7f163c4a11628f55a4df523b3ef60405160405180910390a4809150509392505050565b6008805490506009600083815260200190815260200160002081905550600881908060018154018082558091505060019003906000526020600020016000909190919091505550565b600061231183610e03565b90506000600760008481526020019081526020016000205490506000600660008673ffffffffffffffffffffffffffffffffffffffff1673ffffffffffffffffffffffffffffffffffffffff16815260200190815260200160002090508282146123bd5760008160008581526020019081526020016000205490508082600085815260200190815260200160002081905550826007600083815260200190815260200160002081905550505b6007600085815260200190815260200160002060009055806000848152602001908152602001600020600090555050505050565b6000600160088054905061240591906135b6565b905060006009600084815260200190815260200160002054905060006008838154811061243557612434613057565b5b90600052602060002001549050806008838154811061245757612456613057565b5b9060005260206000200181905550816009600083815260200190815260200160002081905550600960008581526020019081526020016000206000905560088054806124a6576124a56135ea565b5b6001900381819060005260206000200160009055905550505050565b600060016124cf84610e03565b6124d991906135b6565b905081600660008573ffffffffffffffffffffffffffffffffffffffff1673ffffffffffffffffffffffffffffffffffffffff168152602001908152602001600020600083815260200190815260200160002081905550806007600084815260200190815260200160002081905550505050565b612558838383612611565b61260c57600073ffffffffffffffffffffffffffffffffffffffff168373ffffffffffffffffffffffffffffffffffffffff16036125cd57806040517f7e2732890000000000000000000000000000000000000000000000000000000081526004016125c49190612a0d565b60405180910390fd5b81816040517f177e802f00000000000000000000000000000000000000000000000000000000815260040161260392919061302e565b60405180910390fd5b505050565b60008073ffffffffffffffffffffffffffffffffffffffff168373ffffffffffffffffffffffffffffffffffffffff16141580156126c957508273ffffffffffffffffffffffffffffffffffffffff168473ffffffffffffffffffffffffffffffffffffffff16148061268a5750612689848461103b565b5b806126c857508273ffffffffffffffffffffffffffffffffffffffff166126b083611376565b73ffffffffffffffffffffffffffffffffffffffff16145b5b90509392505050565b6000604051905090565b600080fd5b600080fd5b60007fffffffff0000000000000000000000000000000000000000000000000000000082169050919050565b61271b816126e6565b811461272657600080fd5b50565b60008135905061273881612712565b92915050565b600060208284031215612754576127536126dc565b5b600061276284828501612729565b91505092915050565b60008115159050919050565b6127808161276b565b82525050565b600060208201905061279b6000830184612777565b92915050565b600081519050919050565b600082825260208201905092915050565b60005b838110156127db5780820151818401526020810190506127c0565b60008484015250505050565b6000601f19601f8301169050919050565b6000612803826127a1565b61280d81856127ac565b935061281d8185602086016127bd565b612826816127e7565b840191505092915050565b6000602082019050818103600083015261284b81846127f8565b905092915050565b6000819050919050565b61286681612853565b811461287157600080fd5b50565b6000813590506128838161285d565b92915050565b60006020828403121561289f5761289e6126dc565b5b60006128ad84828501612874565b91505092915050565b600073ffffffffffffffffffffffffffffffffffffffff82169050919050565b60006128e1826128b6565b9050919050565b6128f1816128d6565b82525050565b600060208201905061290c60008301846128e8565b92915050565b61291b816128d6565b811461292657600080fd5b50565b60008135905061293881612912565b92915050565b60008060408385031215612955576129546126dc565b5b600061296385828601612929565b925050602061297485828601612874565b9150509250929050565b61298781612853565b82525050565b600060808201905081810360008301526129a781876127f8565b905081810360208301526129bb81866127f8565b90506129ca604083018561297e565b6129d76060830184612777565b95945050505050565b6000602082840312156129f6576129f56126dc565b5b6000612a0484828501612929565b91505092915050565b6000602082019050612a22600083018461297e565b92915050565b600080600060608486031215612a4157612a406126dc565b5b6000612a4f86828701612929565b9350506020612a6086828701612929565b9250506040612a7186828701612874565b9150509250925092565b612a848161276b565b8114612a8f57600080fd5b50565b600081359050612aa181612a7b565b92915050565b60008060408385031215612abe57612abd6126dc565b5b6000612acc85828601612874565b9250506020612add85828601612a92565b9150509250929050565b600081519050919050565b600082825260208201905092915050565b6000819050602082019050919050565b612b1c81612853565b82525050565b6000612b2e8383612b13565b60208301905092915050565b6000602082019050919050565b6000612b5282612ae7565b612b5c8185612af2565b9350612b6783612b03565b8060005b83811015612b98578151612b7f8882612b22565b9750612b8a83612b3a565b925050600181019050612b6b565b5085935050505092915050565b60006020820190508181036000830152612bbf8184612b47565b905092915050565b60008060408385031215612bde57612bdd6126dc565b5b6000612bec85828601612929565b9250506020612bfd85828601612a92565b9150509250929050565b600080fd5b600080fd5b7f4e487b7100000000000000000000000000000000000000000000000000000000600052604160045260246000fd5b612c49826127e7565b810181811067ffffffffffffffff82111715612c6857612c67612c11565b5b80604052505050565b6000612c7b6126d2565b9050612c878282612c40565b919050565b600067ffffffffffffffff821115612ca757612ca6612c11565b5b612cb0826127e7565b9050602081019050919050565b82818337600083830152505050565b6000612cdf612cda84612c8c565b612c71565b905082815260208101848484011115612cfb57612cfa612c0c565b5b612d06848285612cbd565b509392505050565b600082601f830112612d2357612d22612c07565b5b8135612d33848260208601612ccc565b91505092915050565b60008060008060808587031215612d5657612d556126dc565b5b6000612d6487828801612929565b9450506020612d7587828801612929565b9350506040612d8687828801612874565b925050606085013567ffffffffffffffff811115612da757612da66126e1565b5b612db387828801612d0e565b91505092959194509250565b60008060408385031215612dd657612dd56126dc565b5b6000612de485828601612929565b9250506020612df585828601612929565b9150509250929050565b600067ffffffffffffffff821115612e1a57612e19612c11565b5b612e23826127e7565b9050602081019050919050565b6000612e43612e3e84612dff565b612c71565b905082815260208101848484011115612e5f57612e5e612c0c565b5b612e6a848285612cbd565b509392505050565b600082601f830112612e8757612e86612c07565b5b8135612e97848260208601612e30565b91505092915050565b600080600060608486031215612eb957612eb86126dc565b5b6000612ec786828701612929565b935050602084013567ffffffffffffffff811115612ee857612ee76126e1565b5b612ef486828701612e72565b925050604084013567ffffffffffffffff811115612f1557612f146126e1565b5b612f2186828701612e72565b9150509250925092565b7f4e487b7100000000000000000000000000000000000000000000000000000000600052602260045260246000fd5b60006002820490506001821680612f7257607f821691505b602082108103612f8557612f84612f2b565b5b50919050565b7f546f6b656e20646f6573206e6f74206578697374000000000000000000000000600082015250565b6000612fc16014836127ac565b9150612fcc82612f8b565b602082019050919050565b60006020820190508181036000830152612ff081612fb4565b9050919050565b600060608201905061300c60008301866128e8565b613019602083018561297e565b61302660408301846128e8565b949350505050565b600060408201905061304360008301856128e8565b613050602083018461297e565b9392505050565b7f4e487b7100000000000000000000000000000000000000000000000000000000600052603260045260246000fd5b600081905092915050565b600061309c826127a1565b6130a68185613086565b93506130b68185602086016127bd565b80840191505092915050565b60006130ce8285613091565b91506130da8284613091565b91508190509392505050565b7f4e487b7100000000000000000000000000000000000000000000000000000000600052601160045260246000fd5b600061312082612853565b91507fffffffffffffffffffffffffffffffffffffffffffffffffffffffffffffffff8203613152576131516130e6565b5b600182019050919050565b60008190508160005260206000209050919050565b60006020601f8301049050919050565b600082821b905092915050565b6000600883026131bf7fffffffffffffffffffffffffffffffffffffffffffffffffffffffffffffffff82613182565b6131c98683613182565b95508019841693508086168417925050509392505050565b6000819050919050565b60006132066132016131fc84612853565b6131e1565b612853565b9050919050565b6000819050919050565b613220836131eb565b61323461322c8261320d565b84845461318f565b825550505050565b600090565b61324961323c565b613254818484613217565b505050565b5b818110156132785761326d600082613241565b60018101905061325a565b5050565b601f8211156132bd5761328e8161315d565b61329784613172565b810160208510156132a6578190505b6132ba6132b285613172565b830182613259565b50505b505050565b600082821c905092915050565b60006132e0600019846008026132c2565b1980831691505092915050565b60006132f983836132cf565b9150826002028217905092915050565b613312826127a1565b67ffffffffffffffff81111561332b5761332a612c11565b5b6133358254612f5a565b61334082828561327c565b600060209050601f8311600181146133735760008415613361578287015190505b61336b85826132ed565b8655506133d3565b601f1984166133818661315d565b60005b828110156133a957848901518255600182019150602085019450602081019050613384565b868310156133c657848901516133c2601f8916826132cf565b8355505b6001600288020188555050505b505050505050565b600060408201905081810360008301526133f581856127f8565b9050818103602083015261340981846127f8565b90509392505050565b7f456e726f6c6c6d656e74204e46547320617265206e6f6e2d7472616e7366657260008201527f61626c6500000000000000000000000000000000000000000000000000000000602082015250565b600061346e6024836127ac565b915061347982613412565b604082019050919050565b6000602082019050818103600083015261349d81613461565b9050919050565b600081519050919050565b600082825260208201905092915050565b60006134cb826134a4565b6134d581856134af565b93506134e58185602086016127bd565b6134ee816127e7565b840191505092915050565b600060808201905061350e60008301876128e8565b61351b60208301866128e8565b613528604083018561297e565b818103606083015261353a81846134c0565b905095945050505050565b60008151905061355481612712565b92915050565b6000602082840312156135705761356f6126dc565b5b600061357e84828501613545565b91505092915050565b7f4e487b7100000000000000000000000000000000000000000000000000000000600052601260045260246000fd5b60006135c182612853565b91506135cc83612853565b92508282039050818111156135e4576135e36130e6565b5b92915050565b7f4e487b7100000000000000000000000000000000000000000000000000000000600052603160045260246000fdfea26469706673582212202e386dc8233f86eb7a254a4c6026f863360ba1d6f8756a246a84597380dbee4564736f6c634300081c0033",
  "linkReferences": {},
  "deployedLinkReferences": {}
}