{
  "_format": "hh-sol-artifact-1",
  "contractName": "ScholarshipFund",
  "sourceName": "contracts/ScholarshipFund.sol",
  "abi": [
    {
      "inputs": [
        {
          "internalType": "address",
          "name": "_enrollmentNFTAddress",
          "type": "address"
        }
      ],
      "stateMutability": "nonpayable",
      "type": "constructor"
    },
    {
      "anonymous": false,
      "inputs": [
        {
          "indexed": true,
          "internalType": "bytes32",
          "name": "documentHash",
          "type": "bytes32"
        },
        {
          "indexed": true,
          "internalType": "address",
          "name": "student",
          "type": "address"
        }
      ],
      "name": "DocumentHashVerified",
      "type": "event"
    },
    {
      "anonymous": false,
      "inputs": [
        {
          "indexed": true,
          "internalType": "address",
          "name": "student",
          "type": "address"
        },
        {
          "indexed": false,
          "internalType": "bytes32",
          "name": "proofHash",
          "type": "bytes32"
        }
      ],
      "name": "EnrollmentProof",
      "type": "event"
    },
    {
      "anonymous": false,
      "inputs": [
        {
          "indexed": true,
          "internalType": "address",
          "name": "donor",
          "type": "address"
        },
        {
          "indexed": false,
          "internalType": "uint256",
          "name": "amount",
          "type": "uint256"
        }
      ],
      "name": "FundsDeposited",
      "type": "event"
    },
    {
      "anonymous": false,
      "inputs": [
        {
          "indexed": true,
          "internalType": "address",
          "name": "student",
          "type": "address"
        },
        {
          "indexed": false,
          "internalType": "uint256",
          "name": "amount",
          "type": "uint256"
        }
      ],
      "name": "Payout",
      "type": "event"
    },
    {
      "anonymous": false,
      "inputs": [
        {
          "indexed": true,
          "internalType": "address",
          "name": "student",
          "type": "address"
        },
        {
          "indexed": false,
          "internalType": "uint256",
          "name": "score",
          "type": "uint256"
        },
        {
          "indexed": false,
          "internalType": "bytes32",
          "name": "proofHash",
          "type": "bytes32"
        }
      ],
      "name": "ScoreProof",
      "type": "event"
    },
    {
      "anonymous": false,
      "inputs": [
        {
          "indexed": true,
          "internalType": "address",
          "name": "student",
          "type": "address"
        },
        {
          "indexed": false,
          "internalType": "string",
          "name": "verificationType",
          "type": "string"
        }
      ],
      "name": "StudentVerified",
      "type": "event"
    },
    {
      "inputs": [],
      "name": "admin",
      "outputs": [
        {
          "internalType": "address",
          "name": "",
          "type": "address"
        }
      ],
      "stateMutability": "view",
      "type": "function"
    },
    {
      "inputs": [
        {
          "internalType": "address[]",
          "name": "students",
          "type": "address[]"
        }
      ],
      "name": "batchVerifyStudents",
      "outputs": [],
      "stateMutability": "nonpayable",
      "type": "function"
    },
    {
      "inputs": [],
      "name": "depositFunds",
      "outputs": [],
      "stateMutability": "payable",
      "type": "function"
    },
    {
      "inputs": [
        {
          "internalType": "address",
          "name": "student",
          "type": "address"
        }
      ],
      "name": "distributeScholarship",
      "outputs": [],
      "stateMutability": "nonpayable",
      "type": "function"
    },
    {
      "inputs": [],
      "name": "emergencyWithdraw",
      "outputs": [],
      "stateMutability": "nonpayable",
      "type": "function"
    },
    {
      "inputs": [],
      "name": "enrollmentNFT",
      "outputs": [
        {
          "internalType": "contract EnrollmentNFT",
          "name": "",
          "type": "address"
        }
      ],
      "stateMutability": "view",
      "type": "function"
    },
    {
      "inputs": [],
      "name": "getBalance",
      "outputs": [
        {
          "internalType": "uint256",
          "name": "",
          "type": "uint256"
        }
      ],
      "stateMutability": "view",
      "type": "function"
    },
    {
      "inputs": [
        {
          "internalType": "address",
          "name": "student",
          "type": "address"
        }
      ],
      "name": "getStudentMeritScore",
      "outputs": [
        {
          "internalType": "uint256",
          "name": "",
          "type": "uint256"
        }
      ],
      "stateMutability": "view",
      "type": "function"
    },
    {
      "inputs": [
        {
          "internalType": "address",
          "name": "",
          "type": "address"
        }
      ],
      "name": "hasReceivedScholarship",
      "outputs": [
        {
          "internalType": "bool",
          "name": "",
          "type": "bool"
        }
      ],
      "stateMutability": "view",
      "type": "function"
    },
    {
      "inputs": [
        {
          "internalType": "address",
          "name": "student",
          "type": "address"
        }
      ],
      "name": "hasStudentReceivedScholarship",
      "outputs": [
        {
          "internalType": "bool",
          "name": "",
          "type": "bool"
        }
      ],
      "stateMutability": "view",
      "type": "function"
    },
    {
      "inputs": [
        {
          "internalType": "bytes32",
          "name": "documentHash",
          "type": "bytes32"
        }
      ],
      "name": "isDocumentHashVerified",
      "outputs": [
        {
          "internalType": "bool",
          "name": "",
          "type": "bool"
        }
      ],
      "stateMutability": "view",
      "type": "function"
    },
    {
      "inputs": [
        {
          "internalType": "address",
          "name": "student",
          "type": "address"
        }
      ],
      "name": "isStudentVerified",
      "outputs": [
        {
          "internalType": "bool",
          "name": "",
          "type": "bool"
        }
      ],
      "stateMutability": "view",
      "type": "function"
    },
    {
      "inputs": [
        {
          "internalType": "address",
          "name": "",
          "type": "address"
        }
      ],
      "name": "meritScores",
      "outputs": [
        {
          "internalType": "uint256",
          "name": "",
          "type": "uint256"
        }
      ],
      "stateMutability": "view",
      "type": "function"
    },
    {
      "inputs": [
        {
          "internalType": "address",
          "name": "student",
          "type": "address"
        },
        {
          "internalType": "uint256",
          "name": "score",
          "type": "uint256"
        },
        {
          "internalType": "bytes32",
          "name": "proofHash",
          "type": "bytes32"
        }
      ],
      "name": "setMeritScore",
      "outputs": [],
      "stateMutability": "nonpayable",
      "type": "function"
    },
    {
      "inputs": [
        {
          "internalType": "address",
          "name": "student",
          "type": "address"
        },
        {
          "internalType": "bytes32",
          "name": "proofHash",
          "type": "bytes32"
        }
      ],
      "name": "storeEnrollmentProof",
      "outputs": [],
      "stateMutability": "nonpayable",
      "type": "function"
    },
    {
      "inputs": [],
      "name": "totalDistributed",
      "outputs": [
        {
          "internalType": "uint256",
          "name": "",
          "type": "uint256"
        }
      ],
      "stateMutability": "view",
      "type": "function"
    },
    {
      "inputs": [],
      "name": "totalFunds",
      "outputs": [
        {
          "internalType": "uint256",
          "name": "",
          "type": "uint256"
        }
      ],
      "stateMutability": "view",
      "type": "function"
    },
    {
      "inputs": [
        {
          "internalType": "address",
          "name": "newAdmin",
          "type": "address"
        }
      ],
      "name": "transferAdmin",
      "outputs": [],
      "stateMutability": "nonpayable",
      "type": "function"
    },
    {
      "inputs": [
        {
          "internalType": "address",
          "name": "newEnrollmentNFT",
          "type": "address"
        }
      ],
      "name": "updateEnrollmentNFT",
      "outputs": [],
      "stateMutability": "nonpayable",
      "type": "function"
    },
    {
      "inputs": [
        {
          "internalType": "bytes32",
          "name": "",
          "type": "bytes32"
        }
      ],
      "name": "verifiedDocumentHashes",
      "outputs": [
        {
          "internalType": "bool",
          "name": "",
          "type": "bool"
        }
      ],
      "stateMutability": "view",
      "type": "function"
    },
    {
      "inputs": [
        {
          "internalType": "address",
          "name": "",
          "type": "address"
        }
      ],
      "name": "verifiedStudents",
      "outputs": [
        {
          "internalType": "bool",
          "name": "",
          "type": "bool"
        }
      ],
      "stateMutability": "view",
      "type": "function"
    },
    {
      "inputs": [
        {
          "internalType": "address",
          "name": "student",
          "type": "address"
        }
      ],
      "name": "verifyStudent",
      "outputs": [],
      "stateMutability": "nonpayable",
      "type": "function"
    },
    {
      "inputs": [
        {
          "internalType": "address",
          "name": "student",
          "type": "address"
        },
        {
          "internalType": "bytes32",
          "name": "documentHash",
          "type": "bytes32"
        }
      ],
      "name": "verifyStudentByDocument",
      "outputs": [],
      "stateMutability": "nonpayable",
      "type": "function"
    },
    {
      "inputs": [
        {
          "internalType": "address",
          "name": "student",
          "type": "address"
        }
      ],
      "name": "verifyStudentByNFT",
      "outputs": [],
      "stateMutability": "nonpayable",
      "type": "function"
    }
  ],
  "bytecode": "0x608060405234801561001057600080fd5b506040516127833803806127838339818101604052810190610032919061011c565b336000806101000a81548173ffffffffffffffffffffffffffffffffffffffff021916908373ffffffffffffffffffffffffffffffffffffffff16021790555080600160006101000a81548173ffffffffffffffffffffffffffffffffffffffff021916908373ffffffffffffffffffffffffffffffffffffffff16021790555050610149565b600080fd5b600073ffffffffffffffffffffffffffffffffffffffff82169050919050565b60006100e9826100be565b9050919050565b6100f9816100de565b811461010457600080fd5b50565b600081519050610116816100f0565b92915050565b600060208284031215610132576101316100b9565b5b600061014084828501610107565b91505092915050565b61262b806101586000396000f3fe60806040526004361061014b5760003560e01c8063be29ca0d116100b6578063db2e21bc1161006f578063db2e21bc146104c4578063e2c41dbc146104db578063e34470e6146104e5578063eddd797e14610522578063efca2eed1461054b578063f851a440146105765761014b565b8063be29ca0d14610390578063c0f04ca9146103cd578063c2b7905b1461040a578063c9b5901d14610435578063d4f38e7c1461045e578063d613cd511461049b5761014b565b80633878622e116101085780633878622e1461025c5780633df0dcda14610299578063415724eb146102d657806375829def146102ff578063968ed60014610328578063ac699309146103535761014b565b806312065fe01461015057806314c0784a1461017b5780631a1b7e7e146101a45780632590989e146101cd578063326672e51461020a5780633730999314610233575b600080fd5b34801561015c57600080fd5b506101656105a1565b6040516101729190611986565b60405180910390f35b34801561018757600080fd5b506101a2600480360381019061019d9190611a3f565b6105a9565b005b3480156101b057600080fd5b506101cb60048036038101906101c69190611aab565b6106bf565b005b3480156101d957600080fd5b506101f460048036038101906101ef9190611afe565b610874565b6040516102019190611986565b60405180910390f35b34801561021657600080fd5b50610231600480360381019061022c9190611afe565b6108bd565b005b34801561023f57600080fd5b5061025a60048036038101906102559190611a3f565b61098f565b005b34801561026857600080fd5b50610283600480360381019061027e9190611afe565b610b35565b6040516102909190611b46565b60405180910390f35b3480156102a557600080fd5b506102c060048036038101906102bb9190611afe565b610ca1565b6040516102cd9190611986565b60405180910390f35b3480156102e257600080fd5b506102fd60048036038101906102f89190611bc6565b610cb9565b005b34801561030b57600080fd5b5061032660048036038101906103219190611afe565b610e59565b005b34801561033457600080fd5b5061033d610f99565b60405161034a9190611986565b60405180910390f35b34801561035f57600080fd5b5061037a60048036038101906103759190611afe565b610f9f565b6040516103879190611b46565b60405180910390f35b34801561039c57600080fd5b506103b760048036038101906103b29190611afe565b610fbf565b6040516103c49190611b46565b60405180910390f35b3480156103d957600080fd5b506103f460048036038101906103ef9190611afe565b611015565b6040516104019190611b46565b60405180910390f35b34801561041657600080fd5b5061041f611035565b60405161042c9190611c72565b60405180910390f35b34801561044157600080fd5b5061045c60048036038101906104579190611afe565b61105b565b005b34801561046a57600080fd5b5061048560048036038101906104809190611c8d565b611190565b6040516104929190611b46565b60405180910390f35b3480156104a757600080fd5b506104c260048036038101906104bd9190611afe565b6111b0565b005b3480156104d057600080fd5b506104d9611558565b005b6104e361165d565b005b3480156104f157600080fd5b5061050c60048036038101906105079190611c8d565b611709565b6040516105199190611b46565b60405180910390f35b34801561052e57600080fd5b5061054960048036038101906105449190611afe565b611733565b005b34801561055757600080fd5b50610560611943565b60405161056d9190611986565b60405180910390f35b34801561058257600080fd5b5061058b611949565b6040516105989190611cc9565b60405180910390f35b600047905090565b8173ffffffffffffffffffffffffffffffffffffffff163373ffffffffffffffffffffffffffffffffffffffff16148061062e575060008054906101000a900473ffffffffffffffffffffffffffffffffffffffff1673ffffffffffffffffffffffffffffffffffffffff163373ffffffffffffffffffffffffffffffffffffffff16145b61066d576040517f08c379a000000000000000000000000000000000000000000000000000000000815260040161066490611d67565b60405180910390fd5b8173ffffffffffffffffffffffffffffffffffffffff167f8d9955fe28efddc209940f2d0e7d14071077ef05d4f027ca5c08f078053622c6826040516106b39190611d96565b60405180910390a25050565b60008054906101000a900473ffffffffffffffffffffffffffffffffffffffff1673ffffffffffffffffffffffffffffffffffffffff163373ffffffffffffffffffffffffffffffffffffffff161461074d576040517f08c379a000000000000000000000000000000000000000000000000000000000815260040161074490611e23565b60405180910390fd5b8261075781610b35565b610796576040517f08c379a000000000000000000000000000000000000000000000000000000000815260040161078d90611e8f565b60405180910390fd5b60648311156107da576040517f08c379a00000000000000000000000000000000000000000000000000000000081526004016107d190611efb565b60405180910390fd5b82600260008673ffffffffffffffffffffffffffffffffffffffff1673ffffffffffffffffffffffffffffffffffffffff168152602001908152602001600020819055508373ffffffffffffffffffffffffffffffffffffffff167f5ae3b5ec9c3eeff15f9b9ebeb22875d170d8d09d74ae28367d3e4c39120fe32a8484604051610866929190611f1b565b60405180910390a250505050565b6000600260008373ffffffffffffffffffffffffffffffffffffffff1673ffffffffffffffffffffffffffffffffffffffff168152602001908152602001600020549050919050565b60008054906101000a900473ffffffffffffffffffffffffffffffffffffffff1673ffffffffffffffffffffffffffffffffffffffff163373ffffffffffffffffffffffffffffffffffffffff161461094b576040517f08c379a000000000000000000000000000000000000000000000000000000000815260040161094290611e23565b60405180910390fd5b80600160006101000a81548173ffffffffffffffffffffffffffffffffffffffff021916908373ffffffffffffffffffffffffffffffffffffffff16021790555050565b60008054906101000a900473ffffffffffffffffffffffffffffffffffffffff1673ffffffffffffffffffffffffffffffffffffffff163373ffffffffffffffffffffffffffffffffffffffff1614610a1d576040517f08c379a0000000000000000000000000000000000000000000000000000000008152600401610a1490611e23565b60405180910390fd5b60016005600083815260200190815260200160002060006101000a81548160ff0219169083151502179055506001600360008473ffffffffffffffffffffffffffffffffffffffff1673ffffffffffffffffffffffffffffffffffffffff16815260200190815260200160002060006101000a81548160ff0219169083151502179055508173ffffffffffffffffffffffffffffffffffffffff167f5449ca2294f8022ca320a717ebdf9ffb174905b4e8de869ac9558f1f252d6f5e604051610ae590611f90565b60405180910390a28173ffffffffffffffffffffffffffffffffffffffff16817fb4d9e2c43fc731dd62d62b062136c1356ae7b04c992bbe63d548aef221abae0560405160405180910390a35050565b6000600360008373ffffffffffffffffffffffffffffffffffffffff1673ffffffffffffffffffffffffffffffffffffffff16815260200190815260200160002060009054906101000a900460ff1615610b925760019050610c9c565b600073ffffffffffffffffffffffffffffffffffffffff16600160009054906101000a900473ffffffffffffffffffffffffffffffffffffffff1673ffffffffffffffffffffffffffffffffffffffff1614158015610c895750600160009054906101000a900473ffffffffffffffffffffffffffffffffffffffff1673ffffffffffffffffffffffffffffffffffffffff166313078b76836040518263ffffffff1660e01b8152600401610c479190611cc9565b602060405180830381865afa158015610c64573d6000803e3d6000fd5b505050506040513d601f19601f82011682018060405250810190610c889190611fdc565b5b15610c975760019050610c9c565b600090505b919050565b60026020528060005260406000206000915090505481565b60008054906101000a900473ffffffffffffffffffffffffffffffffffffffff1673ffffffffffffffffffffffffffffffffffffffff163373ffffffffffffffffffffffffffffffffffffffff1614610d47576040517f08c379a0000000000000000000000000000000000000000000000000000000008152600401610d3e90611e23565b60405180910390fd5b60005b82829050811015610e5457600160036000858585818110610d6e57610d6d612009565b5b9050602002016020810190610d839190611afe565b73ffffffffffffffffffffffffffffffffffffffff1673ffffffffffffffffffffffffffffffffffffffff16815260200190815260200160002060006101000a81548160ff021916908315150217905550828282818110610de757610de6612009565b5b9050602002016020810190610dfc9190611afe565b73ffffffffffffffffffffffffffffffffffffffff167f5449ca2294f8022ca320a717ebdf9ffb174905b4e8de869ac9558f1f252d6f5e604051610e3f90612084565b60405180910390a28080600101915050610d4a565b505050565b60008054906101000a900473ffffffffffffffffffffffffffffffffffffffff1673ffffffffffffffffffffffffffffffffffffffff163373ffffffffffffffffffffffffffffffffffffffff1614610ee7576040517f08c379a0000000000000000000000000000000000000000000000000000000008152600401610ede90611e23565b60405180910390fd5b600073ffffffffffffffffffffffffffffffffffffffff168173ffffffffffffffffffffffffffffffffffffffff1603610f56576040517f08c379a0000000000000000000000000000000000000000000000000000000008152600401610f4d906120f0565b60405180910390fd5b806000806101000a81548173ffffffffffffffffffffffffffffffffffffffff021916908373ffffffffffffffffffffffffffffffffffffffff16021790555050565b60065481565b60046020528060005260406000206000915054906101000a900460ff1681565b6000600460008373ffffffffffffffffffffffffffffffffffffffff1673ffffffffffffffffffffffffffffffffffffffff16815260200190815260200160002060009054906101000a900460ff169050919050565b60036020528060005260406000206000915054906101000a900460ff1681565b600160009054906101000a900473ffffffffffffffffffffffffffffffffffffffff1681565b60008054906101000a900473ffffffffffffffffffffffffffffffffffffffff1673ffffffffffffffffffffffffffffffffffffffff163373ffffffffffffffffffffffffffffffffffffffff16146110e9576040517f08c379a00000000000000000000000000000000000000000000000000000000081526004016110e090611e23565b60405180910390fd5b6001600360008373ffffffffffffffffffffffffffffffffffffffff1673ffffffffffffffffffffffffffffffffffffffff16815260200190815260200160002060006101000a81548160ff0219169083151502179055508073ffffffffffffffffffffffffffffffffffffffff167f5449ca2294f8022ca320a717ebdf9ffb174905b4e8de869ac9558f1f252d6f5e6040516111859061215c565b60405180910390a250565b60056020528060005260406000206000915054906101000a900460ff1681565b60008054906101000a900473ffffffffffffffffffffffffffffffffffffffff1673ffffffffffffffffffffffffffffffffffffffff163373ffffffffffffffffffffffffffffffffffffffff161461123e576040517f08c379a000000000000000000000000000000000000000000000000000000000815260040161123590611e23565b60405180910390fd5b6000600260008373ffffffffffffffffffffffffffffffffffffffff1673ffffffffffffffffffffffffffffffffffffffff16815260200190815260200160002054116112c0576040517f08c379a00000000000000000000000000000000000000000000000000000000081526004016112b7906121c8565b60405180910390fd5b600460008273ffffffffffffffffffffffffffffffffffffffff1673ffffffffffffffffffffffffffffffffffffffff16815260200190815260200160002060009054906101000a900460ff161561134d576040517f08c379a00000000000000000000000000000000000000000000000000000000081526004016113449061225a565b60405180910390fd5b600060065411611392576040517f08c379a0000000000000000000000000000000000000000000000000000000008152600401611389906122c6565b60405180910390fd5b6000612710600260008473ffffffffffffffffffffffffffffffffffffffff1673ffffffffffffffffffffffffffffffffffffffff168152602001908152602001600020546006546113e49190612315565b6113ee9190612386565b9050600654811115611435576040517f08c379a000000000000000000000000000000000000000000000000000000000815260040161142c90612403565b60405180910390fd5b80600660008282546114479190612423565b9250508190555080600760008282546114609190612457565b925050819055506001600460008473ffffffffffffffffffffffffffffffffffffffff1673ffffffffffffffffffffffffffffffffffffffff16815260200190815260200160002060006101000a81548160ff0219169083151502179055508173ffffffffffffffffffffffffffffffffffffffff166108fc829081150290604051600060405180830381858888f19350505050158015611505573d6000803e3d6000fd5b508173ffffffffffffffffffffffffffffffffffffffff167f5afeca38b2064c23a692c4cf353015d80ab3ecc417b4f893f372690c11fbd9a68260405161154c9190611986565b60405180910390a25050565b60008054906101000a900473ffffffffffffffffffffffffffffffffffffffff1673ffffffffffffffffffffffffffffffffffffffff163373ffffffffffffffffffffffffffffffffffffffff16146115e6576040517f08c379a00000000000000000000000000000000000000000000000000000000081526004016115dd90611e23565b60405180910390fd5b6000479050600060068190555060008054906101000a900473ffffffffffffffffffffffffffffffffffffffff1673ffffffffffffffffffffffffffffffffffffffff166108fc829081150290604051600060405180830381858888f19350505050158015611659573d6000803e3d6000fd5b5050565b600034116116a0576040517f08c379a0000000000000000000000000000000000000000000000000000000008152600401611697906124d7565b60405180910390fd5b34600660008282546116b29190612457565b925050819055503373ffffffffffffffffffffffffffffffffffffffff167f543ba50a5eec5e6178218e364b1d0f396157b3c8fa278522c2cb7fd99407d474346040516116ff9190611986565b60405180910390a2565b60006005600083815260200190815260200160002060009054906101000a900460ff169050919050565b60008054906101000a900473ffffffffffffffffffffffffffffffffffffffff1673ffffffffffffffffffffffffffffffffffffffff163373ffffffffffffffffffffffffffffffffffffffff16146117c1576040517f08c379a00000000000000000000000000000000000000000000000000000000081526004016117b890611e23565b60405180910390fd5b600160009054906101000a900473ffffffffffffffffffffffffffffffffffffffff1673ffffffffffffffffffffffffffffffffffffffff166313078b76826040518263ffffffff1660e01b815260040161181c9190611cc9565b602060405180830381865afa158015611839573d6000803e3d6000fd5b505050506040513d601f19601f8201168201806040525081019061185d9190611fdc565b61189c576040517f08c379a000000000000000000000000000000000000000000000000000000000815260040161189390612569565b60405180910390fd5b6001600360008373ffffffffffffffffffffffffffffffffffffffff1673ffffffffffffffffffffffffffffffffffffffff16815260200190815260200160002060006101000a81548160ff0219169083151502179055508073ffffffffffffffffffffffffffffffffffffffff167f5449ca2294f8022ca320a717ebdf9ffb174905b4e8de869ac9558f1f252d6f5e604051611938906125d5565b60405180910390a250565b60075481565b60008054906101000a900473ffffffffffffffffffffffffffffffffffffffff1681565b6000819050919050565b6119808161196d565b82525050565b600060208201905061199b6000830184611977565b92915050565b600080fd5b600080fd5b600073ffffffffffffffffffffffffffffffffffffffff82169050919050565b60006119d6826119ab565b9050919050565b6119e6816119cb565b81146119f157600080fd5b50565b600081359050611a03816119dd565b92915050565b6000819050919050565b611a1c81611a09565b8114611a2757600080fd5b50565b600081359050611a3981611a13565b92915050565b60008060408385031215611a5657611a556119a1565b5b6000611a64858286016119f4565b9250506020611a7585828601611a2a565b9150509250929050565b611a888161196d565b8114611a9357600080fd5b50565b600081359050611aa581611a7f565b92915050565b600080600060608486031215611ac457611ac36119a1565b5b6000611ad2868287016119f4565b9350506020611ae386828701611a96565b9250506040611af486828701611a2a565b9150509250925092565b600060208284031215611b1457611b136119a1565b5b6000611b22848285016119f4565b91505092915050565b60008115159050919050565b611b4081611b2b565b82525050565b6000602082019050611b5b6000830184611b37565b92915050565b600080fd5b600080fd5b600080fd5b60008083601f840112611b8657611b85611b61565b5b8235905067ffffffffffffffff811115611ba357611ba2611b66565b5b602083019150836020820283011115611bbf57611bbe611b6b565b5b9250929050565b60008060208385031215611bdd57611bdc6119a1565b5b600083013567ffffffffffffffff811115611bfb57611bfa6119a6565b5b611c0785828601611b70565b92509250509250929050565b6000819050919050565b6000611c38611c33611c2e846119ab565b611c13565b6119ab565b9050919050565b6000611c4a82611c1d565b9050919050565b6000611c5c82611c3f565b9050919050565b611c6c81611c51565b82525050565b6000602082019050611c876000830184611c63565b92915050565b600060208284031215611ca357611ca26119a1565b5b6000611cb184828501611a2a565b91505092915050565b611cc3816119cb565b82525050565b6000602082019050611cde6000830184611cba565b92915050565b600082825260208201905092915050565b7f4f6e6c792073747564656e74206f722061646d696e2063616e2073746f72652060008201527f70726f6f66000000000000000000000000000000000000000000000000000000602082015250565b6000611d51602583611ce4565b9150611d5c82611cf5565b604082019050919050565b60006020820190508181036000830152611d8081611d44565b9050919050565b611d9081611a09565b82525050565b6000602082019050611dab6000830184611d87565b92915050565b7f4f6e6c792061646d696e2063616e20706572666f726d2074686973206163746960008201527f6f6e000000000000000000000000000000000000000000000000000000000000602082015250565b6000611e0d602283611ce4565b9150611e1882611db1565b604082019050919050565b60006020820190508181036000830152611e3c81611e00565b9050919050565b7f53747564656e74206e6f74207665726966696564000000000000000000000000600082015250565b6000611e79601483611ce4565b9150611e8482611e43565b602082019050919050565b60006020820190508181036000830152611ea881611e6c565b9050919050565b7f496e76616c69642073636f7265202d206d75737420626520302d313030000000600082015250565b6000611ee5601d83611ce4565b9150611ef082611eaf565b602082019050919050565b60006020820190508181036000830152611f1481611ed8565b9050919050565b6000604082019050611f306000830185611977565b611f3d6020830184611d87565b9392505050565b7f446f63756d656e74000000000000000000000000000000000000000000000000600082015250565b6000611f7a600883611ce4565b9150611f8582611f44565b602082019050919050565b60006020820190508181036000830152611fa981611f6d565b9050919050565b611fb981611b2b565b8114611fc457600080fd5b50565b600081519050611fd681611fb0565b92915050565b600060208284031215611ff257611ff16119a1565b5b600061200084828501611fc7565b91505092915050565b7f4e487b7100000000000000000000000000000000000000000000000000000000600052603260045260246000fd5b7f4261746368000000000000000000000000000000000000000000000000000000600082015250565b600061206e600583611ce4565b915061207982612038565b602082019050919050565b6000602082019050818103600083015261209d81612061565b9050919050565b7f496e76616c69642061646d696e20616464726573730000000000000000000000600082015250565b60006120da601583611ce4565b91506120e5826120a4565b602082019050919050565b60006020820190508181036000830152612109816120cd565b9050919050565b7f4d616e75616c0000000000000000000000000000000000000000000000000000600082015250565b6000612146600683611ce4565b915061215182612110565b602082019050919050565b6000602082019050818103600083015261217581612139565b9050919050565b7f4e6f206d657269742073636f72652061737369676e6564000000000000000000600082015250565b60006121b2601783611ce4565b91506121bd8261217c565b602082019050919050565b600060208201905081810360008301526121e1816121a5565b9050919050565b7f53747564656e7420616c7265616479207265636569766564207363686f6c617260008201527f7368697000000000000000000000000000000000000000000000000000000000602082015250565b6000612244602483611ce4565b915061224f826121e8565b604082019050919050565b6000602082019050818103600083015261227381612237565b9050919050565b7f4e6f2066756e647320617661696c61626c650000000000000000000000000000600082015250565b60006122b0601283611ce4565b91506122bb8261227a565b602082019050919050565b600060208201905081810360008301526122df816122a3565b9050919050565b7f4e487b7100000000000000000000000000000000000000000000000000000000600052601160045260246000fd5b60006123208261196d565b915061232b8361196d565b92508282026123398161196d565b915082820484148315176123505761234f6122e6565b5b5092915050565b7f4e487b7100000000000000000000000000000000000000000000000000000000600052601260045260246000fd5b60006123918261196d565b915061239c8361196d565b9250826123ac576123ab612357565b5b828204905092915050565b7f496e73756666696369656e742066756e64730000000000000000000000000000600082015250565b60006123ed601283611ce4565b91506123f8826123b7565b602082019050919050565b6000602082019050818103600083015261241c816123e0565b9050919050565b600061242e8261196d565b91506124398361196d565b9250828203905081811115612451576124506122e6565b5b92915050565b60006124628261196d565b915061246d8361196d565b9250828201905080821115612485576124846122e6565b5b92915050565b7f4d757374206465706f73697420736f6d652066756e6473000000000000000000600082015250565b60006124c1601783611ce4565b91506124cc8261248b565b602082019050919050565b600060208201905081810360008301526124f0816124b4565b9050919050565b7f53747564656e7420646f6573206e6f7420686176652061637469766520656e7260008201527f6f6c6c6d656e74204e4654000000000000000000000000000000000000000000602082015250565b6000612553602b83611ce4565b915061255e826124f7565b604082019050919050565b6000602082019050818103600083015261258281612546565b9050919050565b7f4e46540000000000000000000000000000000000000000000000000000000000600082015250565b60006125bf600383611ce4565b91506125ca82612589565b602082019050919050565b600060208201905081810360008301526125ee816125b2565b905091905056fea2646970667358221220b74daad6c0a94ff7daff2afb961994e159ebe2a84c0d2dbba0d45a37fd37364664736f6c634300081c0033",
  "linkReferences": {},
  "deployedLinkReferences": {}
}